{
  "_format": "hh-sol-artifact-1",
  "contractName": "MessageProxyForSchain",
  "sourceName": "contracts/schain/MessageProxyForSchain.sol",
  "abi": [
    {
      "anonymous": false,
      "inputs": [
        {
          "indexed": true,
          "internalType": "bytes32",
          "name": "chainHash",
          "type": "bytes32"
        },
        {
          "indexed": false,
          "internalType": "address",
          "name": "contractAddress",
          "type": "address"
        }
      ],
      "name": "ExtraContractRegistered",
      "type": "event"
    },
    {
      "anonymous": false,
      "inputs": [
        {
          "indexed": true,
          "internalType": "bytes32",
          "name": "chainHash",
          "type": "bytes32"
        },
        {
          "indexed": false,
          "internalType": "address",
          "name": "contractAddress",
          "type": "address"
        }
      ],
      "name": "ExtraContractRemoved",
      "type": "event"
    },
    {
      "anonymous": false,
      "inputs": [
        {
          "indexed": false,
          "internalType": "uint256",
          "name": "oldValue",
          "type": "uint256"
        },
        {
          "indexed": false,
          "internalType": "uint256",
          "name": "newValue",
          "type": "uint256"
        }
      ],
      "name": "GasLimitWasChanged",
      "type": "event"
    },
    {
      "anonymous": false,
      "inputs": [
        {
          "indexed": true,
          "internalType": "bytes32",
          "name": "dstChainHash",
          "type": "bytes32"
        },
        {
          "indexed": true,
          "internalType": "uint256",
          "name": "msgCounter",
          "type": "uint256"
        },
        {
          "indexed": true,
          "internalType": "address",
          "name": "srcContract",
          "type": "address"
        },
        {
          "indexed": false,
          "internalType": "address",
          "name": "dstContract",
          "type": "address"
        },
        {
          "indexed": false,
          "internalType": "bytes",
          "name": "data",
          "type": "bytes"
        }
      ],
      "name": "OutgoingMessage",
      "type": "event"
    },
    {
      "anonymous": false,
      "inputs": [
        {
          "indexed": true,
          "internalType": "uint256",
          "name": "msgCounter",
          "type": "uint256"
        },
        {
          "indexed": false,
          "internalType": "bytes",
          "name": "message",
          "type": "bytes"
        }
      ],
      "name": "PostMessageError",
      "type": "event"
    },
    {
      "anonymous": false,
      "inputs": [
        {
          "indexed": true,
          "internalType": "bytes32",
          "name": "role",
          "type": "bytes32"
        },
        {
          "indexed": true,
          "internalType": "bytes32",
          "name": "previousAdminRole",
          "type": "bytes32"
        },
        {
          "indexed": true,
          "internalType": "bytes32",
          "name": "newAdminRole",
          "type": "bytes32"
        }
      ],
      "name": "RoleAdminChanged",
      "type": "event"
    },
    {
      "anonymous": false,
      "inputs": [
        {
          "indexed": true,
          "internalType": "bytes32",
          "name": "role",
          "type": "bytes32"
        },
        {
          "indexed": true,
          "internalType": "address",
          "name": "account",
          "type": "address"
        },
        {
          "indexed": true,
          "internalType": "address",
          "name": "sender",
          "type": "address"
        }
      ],
      "name": "RoleGranted",
      "type": "event"
    },
    {
      "anonymous": false,
      "inputs": [
        {
          "indexed": true,
          "internalType": "bytes32",
          "name": "role",
          "type": "bytes32"
        },
        {
          "indexed": true,
          "internalType": "address",
          "name": "account",
          "type": "address"
        },
        {
          "indexed": true,
          "internalType": "address",
          "name": "sender",
          "type": "address"
        }
      ],
      "name": "RoleRevoked",
      "type": "event"
    },
    {
      "inputs": [],
      "name": "CHAIN_CONNECTOR_ROLE",
      "outputs": [
        {
          "internalType": "bytes32",
          "name": "",
          "type": "bytes32"
        }
      ],
      "stateMutability": "view",
      "type": "function"
    },
    {
      "inputs": [],
      "name": "CONSTANT_SETTER_ROLE",
      "outputs": [
        {
          "internalType": "bytes32",
          "name": "",
          "type": "bytes32"
        }
      ],
      "stateMutability": "view",
      "type": "function"
    },
    {
      "inputs": [],
      "name": "DEFAULT_ADMIN_ROLE",
      "outputs": [
        {
          "internalType": "bytes32",
          "name": "",
          "type": "bytes32"
        }
      ],
      "stateMutability": "view",
      "type": "function"
    },
    {
      "inputs": [],
      "name": "EXTRA_CONTRACT_REGISTRAR_ROLE",
      "outputs": [
        {
          "internalType": "bytes32",
          "name": "",
          "type": "bytes32"
        }
      ],
      "stateMutability": "view",
      "type": "function"
    },
    {
      "inputs": [],
      "name": "MAINNET_HASH",
      "outputs": [
        {
          "internalType": "bytes32",
          "name": "",
          "type": "bytes32"
        }
      ],
      "stateMutability": "view",
      "type": "function"
    },
    {
      "inputs": [],
      "name": "MESSAGES_LENGTH",
      "outputs": [
        {
          "internalType": "uint256",
          "name": "",
          "type": "uint256"
        }
      ],
      "stateMutability": "view",
      "type": "function"
    },
    {
      "inputs": [
        {
          "internalType": "string",
          "name": "chainName",
          "type": "string"
        }
      ],
      "name": "addConnectedChain",
      "outputs": [],
      "stateMutability": "nonpayable",
      "type": "function"
    },
    {
      "inputs": [
        {
          "internalType": "bytes32",
          "name": "",
          "type": "bytes32"
        }
      ],
      "name": "connectedChains",
      "outputs": [
        {
          "internalType": "uint256",
          "name": "incomingMessageCounter",
          "type": "uint256"
        },
        {
          "internalType": "uint256",
          "name": "outgoingMessageCounter",
          "type": "uint256"
        },
        {
          "internalType": "bool",
          "name": "inited",
          "type": "bool"
        }
      ],
      "stateMutability": "view",
      "type": "function"
    },
    {
      "inputs": [],
      "name": "gasLimit",
      "outputs": [
        {
          "internalType": "uint256",
          "name": "",
          "type": "uint256"
        }
      ],
      "stateMutability": "view",
      "type": "function"
    },
    {
      "inputs": [
        {
          "internalType": "bytes32",
          "name": "schainHash",
          "type": "bytes32"
        }
      ],
      "name": "getContractRegisteredLength",
      "outputs": [
        {
          "internalType": "uint256",
          "name": "",
          "type": "uint256"
        }
      ],
      "stateMutability": "view",
      "type": "function"
    },
    {
      "inputs": [
        {
          "internalType": "bytes32",
          "name": "schainHash",
          "type": "bytes32"
        },
        {
          "internalType": "uint256",
          "name": "from",
          "type": "uint256"
        },
        {
          "internalType": "uint256",
          "name": "to",
          "type": "uint256"
        }
      ],
      "name": "getContractRegisteredRange",
      "outputs": [
        {
          "internalType": "address[]",
          "name": "contractsInRange",
          "type": "address[]"
        }
      ],
      "stateMutability": "view",
      "type": "function"
    },
    {
      "inputs": [
        {
          "internalType": "string",
          "name": "fromSchainName",
          "type": "string"
        }
      ],
      "name": "getIncomingMessagesCounter",
      "outputs": [
        {
          "internalType": "uint256",
          "name": "",
          "type": "uint256"
        }
      ],
      "stateMutability": "view",
      "type": "function"
    },
    {
      "inputs": [
        {
          "internalType": "string",
          "name": "targetSchainName",
          "type": "string"
        }
      ],
      "name": "getOutgoingMessagesCounter",
      "outputs": [
        {
          "internalType": "uint256",
          "name": "",
          "type": "uint256"
        }
      ],
      "stateMutability": "view",
      "type": "function"
    },
    {
      "inputs": [
        {
          "internalType": "bytes32",
          "name": "role",
          "type": "bytes32"
        }
      ],
      "name": "getRoleAdmin",
      "outputs": [
        {
          "internalType": "bytes32",
          "name": "",
          "type": "bytes32"
        }
      ],
      "stateMutability": "view",
      "type": "function"
    },
    {
      "inputs": [
        {
          "internalType": "bytes32",
          "name": "role",
          "type": "bytes32"
        },
        {
          "internalType": "uint256",
          "name": "index",
          "type": "uint256"
        }
      ],
      "name": "getRoleMember",
      "outputs": [
        {
          "internalType": "address",
          "name": "",
          "type": "address"
        }
      ],
      "stateMutability": "view",
      "type": "function"
    },
    {
      "inputs": [
        {
          "internalType": "bytes32",
          "name": "role",
          "type": "bytes32"
        }
      ],
      "name": "getRoleMemberCount",
      "outputs": [
        {
          "internalType": "uint256",
          "name": "",
          "type": "uint256"
        }
      ],
      "stateMutability": "view",
      "type": "function"
    },
    {
      "inputs": [
        {
          "internalType": "bytes32",
          "name": "role",
          "type": "bytes32"
        },
        {
          "internalType": "address",
          "name": "account",
          "type": "address"
        }
      ],
      "name": "grantRole",
      "outputs": [],
      "stateMutability": "nonpayable",
      "type": "function"
    },
    {
      "inputs": [
        {
          "internalType": "bytes32",
          "name": "role",
          "type": "bytes32"
        },
        {
          "internalType": "address",
          "name": "account",
          "type": "address"
        }
      ],
      "name": "hasRole",
      "outputs": [
        {
          "internalType": "bool",
          "name": "",
          "type": "bool"
        }
      ],
      "stateMutability": "view",
      "type": "function"
    },
    {
      "inputs": [
        {
          "internalType": "contract IKeyStorage",
          "name": "blsKeyStorage",
          "type": "address"
        },
        {
          "internalType": "string",
          "name": "schainName",
          "type": "string"
        }
      ],
      "name": "initialize",
      "outputs": [],
      "stateMutability": "nonpayable",
      "type": "function"
    },
    {
      "inputs": [
        {
          "internalType": "bytes32",
          "name": "chainHash",
          "type": "bytes32"
        },
        {
          "internalType": "address[]",
          "name": "contracts",
          "type": "address[]"
        }
      ],
      "name": "initializeAllRegisteredContracts",
      "outputs": [],
      "stateMutability": "nonpayable",
      "type": "function"
    },
    {
      "inputs": [
        {
          "internalType": "uint256",
          "name": "newGasLimit",
          "type": "uint256"
        }
      ],
      "name": "initializeMessageProxy",
      "outputs": [],
      "stateMutability": "nonpayable",
      "type": "function"
    },
    {
      "inputs": [
        {
          "internalType": "string",
          "name": "schainName",
          "type": "string"
        }
      ],
      "name": "isConnectedChain",
      "outputs": [
        {
          "internalType": "bool",
          "name": "",
          "type": "bool"
        }
      ],
      "stateMutability": "view",
      "type": "function"
    },
    {
      "inputs": [
        {
          "internalType": "bytes32",
          "name": "schainHash",
          "type": "bytes32"
        },
        {
          "internalType": "address",
          "name": "contractAddress",
          "type": "address"
        }
      ],
      "name": "isContractRegistered",
      "outputs": [
        {
          "internalType": "bool",
          "name": "",
          "type": "bool"
        }
      ],
      "stateMutability": "view",
      "type": "function"
    },
    {
      "inputs": [],
      "name": "keyStorage",
      "outputs": [
        {
          "internalType": "contract IKeyStorage",
          "name": "",
          "type": "address"
        }
      ],
      "stateMutability": "view",
      "type": "function"
    },
    {
      "inputs": [
        {
          "internalType": "string",
          "name": "fromChainName",
          "type": "string"
        },
        {
          "internalType": "uint256",
          "name": "startingCounter",
          "type": "uint256"
        },
        {
          "components": [
            {
              "internalType": "address",
              "name": "sender",
              "type": "address"
            },
            {
              "internalType": "address",
              "name": "destinationContract",
              "type": "address"
            },
            {
              "internalType": "bytes",
              "name": "data",
              "type": "bytes"
            }
          ],
          "internalType": "struct IMessageProxy.Message[]",
          "name": "messages",
          "type": "tuple[]"
        },
        {
          "components": [
            {
              "internalType": "uint256[2]",
              "name": "blsSignature",
              "type": "uint256[2]"
            },
            {
              "internalType": "uint256",
              "name": "hashA",
              "type": "uint256"
            },
            {
              "internalType": "uint256",
              "name": "hashB",
              "type": "uint256"
            },
            {
              "internalType": "uint256",
              "name": "counter",
              "type": "uint256"
            }
          ],
          "internalType": "struct IMessageProxy.Signature",
          "name": "signature",
          "type": "tuple"
        }
      ],
      "name": "postIncomingMessages",
      "outputs": [],
      "stateMutability": "nonpayable",
      "type": "function"
    },
    {
      "inputs": [
        {
          "internalType": "bytes32",
          "name": "targetChainHash",
          "type": "bytes32"
        },
        {
          "internalType": "address",
          "name": "targetContract",
          "type": "address"
        },
        {
          "internalType": "bytes",
          "name": "data",
          "type": "bytes"
        }
      ],
      "name": "postOutgoingMessage",
      "outputs": [],
      "stateMutability": "nonpayable",
      "type": "function"
    },
    {
      "inputs": [
        {
          "internalType": "string",
          "name": "chainName",
          "type": "string"
        },
        {
          "internalType": "address",
          "name": "extraContract",
          "type": "address"
        }
      ],
      "name": "registerExtraContract",
      "outputs": [],
      "stateMutability": "nonpayable",
      "type": "function"
    },
    {
      "inputs": [
        {
          "internalType": "address",
          "name": "extraContract",
          "type": "address"
        }
      ],
      "name": "registerExtraContractForAll",
      "outputs": [],
      "stateMutability": "nonpayable",
      "type": "function"
    },
    {
      "inputs": [
        {
          "internalType": "string",
          "name": "chainName",
          "type": "string"
        }
      ],
      "name": "removeConnectedChain",
      "outputs": [],
      "stateMutability": "nonpayable",
      "type": "function"
    },
    {
      "inputs": [
        {
          "internalType": "string",
          "name": "chainName",
          "type": "string"
        },
        {
          "internalType": "address",
          "name": "extraContract",
          "type": "address"
        }
      ],
      "name": "removeExtraContract",
      "outputs": [],
      "stateMutability": "nonpayable",
      "type": "function"
    },
    {
      "inputs": [
        {
          "internalType": "address",
          "name": "extraContract",
          "type": "address"
        }
      ],
      "name": "removeExtraContractForAll",
      "outputs": [],
      "stateMutability": "nonpayable",
      "type": "function"
    },
    {
      "inputs": [
        {
          "internalType": "bytes32",
          "name": "role",
          "type": "bytes32"
        },
        {
          "internalType": "address",
          "name": "account",
          "type": "address"
        }
      ],
      "name": "renounceRole",
      "outputs": [],
      "stateMutability": "nonpayable",
      "type": "function"
    },
    {
      "inputs": [
        {
          "internalType": "bytes32",
          "name": "role",
          "type": "bytes32"
        },
        {
          "internalType": "address",
          "name": "account",
          "type": "address"
        }
      ],
      "name": "revokeRole",
      "outputs": [],
      "stateMutability": "nonpayable",
      "type": "function"
    },
    {
      "inputs": [],
      "name": "schainHash",
      "outputs": [
        {
          "internalType": "bytes32",
          "name": "",
          "type": "bytes32"
        }
      ],
      "stateMutability": "view",
      "type": "function"
    },
    {
      "inputs": [
        {
          "internalType": "uint256",
          "name": "newGasLimit",
          "type": "uint256"
        }
      ],
      "name": "setNewGasLimit",
      "outputs": [],
      "stateMutability": "nonpayable",
      "type": "function"
    },
    {
      "inputs": [
        {
          "internalType": "bytes4",
          "name": "interfaceId",
          "type": "bytes4"
        }
      ],
      "name": "supportsInterface",
      "outputs": [
        {
          "internalType": "bool",
          "name": "",
          "type": "bool"
        }
      ],
      "stateMutability": "view",
      "type": "function"
    },
    {
      "inputs": [
        {
          "components": [
            {
              "internalType": "bytes32",
              "name": "dstChainHash",
              "type": "bytes32"
            },
            {
              "internalType": "uint256",
              "name": "msgCounter",
              "type": "uint256"
            },
            {
              "internalType": "address",
              "name": "srcContract",
              "type": "address"
            },
            {
              "internalType": "address",
              "name": "dstContract",
              "type": "address"
            },
            {
              "internalType": "bytes",
              "name": "data",
              "type": "bytes"
            }
          ],
          "internalType": "struct IMessageProxyForSchain.OutgoingMessageData",
          "name": "message",
          "type": "tuple"
        }
      ],
      "name": "verifyOutgoingMessageData",
      "outputs": [
        {
          "internalType": "bool",
          "name": "isValidMessage",
          "type": "bool"
        }
      ],
      "stateMutability": "view",
      "type": "function"
    }
  ],
  "bytecode": "0x608060405234801561001057600080fd5b50613b7c806100206000396000f3fe608060405234801561001057600080fd5b50600436106102275760003560e01c806377fe0f3111610130578063bdb40cb0116100b8578063f2f636051161007c578063f2f6360514610539578063f399e22e1461054c578063f68016b71461055f578063f79f795414610568578063f8c88a161461057b57600080fd5b8063bdb40cb0146104a9578063ca15c873146104b1578063cab010c9146104c4578063d547741f146104d7578063e6ab8403146104ea57600080fd5b806394489202116100ff5780639448920214610441578063999ab9aa14610454578063a217fddf14610467578063a8bb1b7d1461046f578063bbc4e8c21461048257600080fd5b806377fe0f31146103dd5780637aa38a7c146103f05780639010d07c1461040357806391d148541461042e57600080fd5b80633b690b6b116101b3578063603e5d1311610182578063603e5d131461037e578063654d8828146103915780636660de1c146103a457806367ec6020146103b75780636e2f37b0146103ca57600080fd5b80633b690b6b1461033a5780633cdd2cc3146103435780634d20385914610356578063523c8ab61461036957600080fd5b8063248a9ca3116101fa578063248a9ca3146102aa57806328c5e182146102cd5780632f2ff15d146102ff57806336568abe146103145780633b597ffe1461032757600080fd5b806301ffc9a71461022c5780630fc307a81461025457806313c5226014610275578063214883401461028a575b600080fd5b61023f61023a3660046131c4565b61058e565b60405190151581526020015b60405180910390f35b61026761026236600461308a565b6105b9565b60405190815260200161024b565b610267600080516020613b2783398151915281565b61029d610298366004613198565b6105d0565b60405161024b91906135df565b6102676102b836600461308a565b60009081526065602052604090206001015490565b6102676040516613585a5b9b995d60ca1b60208201526027016040516020818303038152906040528051906020012081565b61031261030d3660046130a3565b61070f565b005b6103126103223660046130a3565b610736565b61031261033536600461308a565b610758565b61026760cd5481565b610312610351366004613312565b61081e565b610312610364366004613050565b61090c565b610267600080516020613ae783398151915281565b61031261038c36600461327e565b610a46565b61023f61039f3660046130a3565b610c7a565b6103126103b236600461312b565b610c99565b6102676103c536600461323d565b610e49565b6103126103d836600461308a565b610ec2565b6102676103eb36600461323d565b610fa0565b61023f6103fe3660046133cf565b611046565b610416610411366004613176565b611080565b6040516001600160a01b03909116815260200161024b565b61023f61043c3660046130a3565b611098565b61031261044f3660046130d3565b6110c3565b61023f610462366004613312565b611179565b610267600081565b61031261047d366004613050565b6111c2565b6102677f96e3fc3be15159903e053027cff8a23f39a990e0194abcd8ac1cf1b355b8b93c81565b610267600a81565b6102676104bf36600461308a565b6112bc565b6103126104d2366004613346565b6112d3565b6103126104e53660046130a3565b61135e565b61051c6104f836600461308a565b60c96020526000908152604090208054600182015460029092015490919060ff1683565b60408051938452602084019290925215159082015260600161024b565b61031261054736600461323d565b611368565b61031261055a3660046131ee565b6113f0565b61026760cb5481565b60cc54610416906001600160a01b031681565b610312610589366004613346565b611537565b60006001600160e01b03198216635a05180f60e01b14806105b357506105b3826115c2565b92915050565b600081815260d1602052604081206105b3906115f7565b606081831080156105eb5750600a6105e884846138c5565b11155b801561060d5750600084815260d160205260409020610609906115f7565b8211155b6106535760405162461bcd60e51b815260206004820152601260248201527114985b99d9481a5cc81a5b98dbdc9c9958dd60721b60448201526064015b60405180910390fd5b61065d83836138c5565b6001600160401b0381111561067457610674613a16565b60405190808252806020026020018201604052801561069d578160200160208202803683370190505b509050825b8281101561070757600085815260d1602052604090206106c29082611601565b826106cd86846138c5565b815181106106dd576106dd613a00565b6001600160a01b0390921660209283029190910190910152806106ff8161398f565b9150506106a2565b509392505050565b610719828261160d565b60008281526097602052604090206107319082611633565b505050565b6107408282611648565b600082815260976020526040902061073190826116c2565b6107827f96e3fc3be15159903e053027cff8a23f39a990e0194abcd8ac1cf1b355b8b93c33611098565b6107dd5760405162461bcd60e51b815260206004820152602660248201527f4e6f7420656e6f756768207065726d697373696f6e7320746f2073657420636f6044820152651b9cdd185b9d60d21b606482015260840161064a565b60cb5460408051918252602082018390527f8abddb75fd50f7583079c0b550ec7a54fa3fd8d5dd1d2dfdc473f7ce27e3b9ac910160405180910390a160cb55565b610836600080516020613b2783398151915233611098565b6108525760405162461bcd60e51b815260040161064a90613686565b600081604051602001610865919061352a565b60405160208183030381529060405280519060200120905060405160200161089a906613585a5b9b995d60ca1b815260070190565b604051602081830303815290604052805190602001208114156108ff5760405162461bcd60e51b815260206004820152601960248201527f4d61696e6e65742063616e6e6f742062652072656d6f76656400000000000000604482015260640161064a565b610908826116d7565b5050565b610924600080516020613ae783398151915233611098565b6109405760405162461bcd60e51b815260040161064a906136bb565b6001600160a01b0381163b6109975760405162461bcd60e51b815260206004820152601f60248201527f476976656e2061646472657373206973206e6f74206120636f6e747261637400604482015260640161064a565b6109b38160d15b600080805260209190915260409020906117ba565b156109d05760405162461bcd60e51b815260040161064a906137da565b6000805260d1602052610a027efa5413e7b01fc543d01f0911de573ace463b956369df4472f39030e8d98b7782611633565b506040516001600160a01b03821681526000907f03bcd152926369e3cf05cb7af471a15d680e8ec5d20b13705048d14e94679365906020015b60405180910390a250565b60008686604051602001610a5b92919061351a565b60408051601f198184030181529181528151602092830120600081815260c990935291206002015490915060ff16610ad05760405162461bcd60e51b815260206004820152601860248201527710da185a5b881a5cc81b9bdd081a5b9a5d1a585b1a5e995960421b604482015260640161064a565b600a831115610b155760405162461bcd60e51b8152602060048201526011602482015270546f6f206d616e79206d6573736167657360781b604482015260640161064a565b610b28610b2285856117dc565b836118e7565b610b745760405162461bcd60e51b815260206004820152601960248201527f5369676e6174757265206973206e6f7420766572696669656400000000000000604482015260640161064a565b600081815260c960205260409020548514610bf75760405162461bcd60e51b815260206004820152603860248201527f5374617274696e6720636f756e746572206973206e6f74207175616c20746f2060448201527f696e636f6d696e67206d65737361676520636f756e7465720000000000000000606482015260840161064a565b60005b83811015610c4d57610c3a82868684818110610c1857610c18613a00565b9050602002810190610c2a9190613864565b610c3589600161387a565b611994565b5080610c458161398f565b915050610bfa565b50600081815260c9602052604081208054859290610c6c90849061387a565b909155505050505050505050565b600082815260d160205260408120610c9290836117ba565b9392505050565b610ca4600033611098565b610cf05760405162461bcd60e51b815260206004820152601860248201527f53656e646572206973206e6f7420617574686f72697a65640000000000000000604482015260640161064a565b60005b81811015610e4357600084815260ca6020526040812090848484818110610d1c57610d1c613a00565b9050602002016020810190610d319190613050565b6001600160a01b0316815260208101919091526040016000205460ff168015610d955750610d93838383818110610d6a57610d6a613a00565b9050602002016020810190610d7f9190613050565b600086815260d160205260409020906117ba565b155b15610e3157610dd8838383818110610daf57610daf613a00565b9050602002016020810190610dc49190613050565b600086815260d16020526040902090611633565b50600084815260ca6020526040812090848484818110610dfa57610dfa613a00565b9050602002016020810190610e0f9190613050565b6001600160a01b031681526020810191909152604001600020805460ff191690555b80610e3b8161398f565b915050610cf3565b50505050565b6000808383604051602001610e5f92919061351a565b60408051601f198184030181529181528151602092830120600081815260c990935291206002015490915060ff16610ea95760405162461bcd60e51b815260040161064a90613796565b600090815260c960205260409020600101549392505050565b600054610100900460ff1680610edb575060005460ff16155b610ef75760405162461bcd60e51b815260040161064a90613704565b600054610100900460ff16158015610f19576000805461ffff19166101011790555b610f21611bbf565b610f2c600033611c4b565b610f44600080516020613b2783398151915233611c4b565b610f5c600080516020613ae783398151915233611c4b565b610f867f96e3fc3be15159903e053027cff8a23f39a990e0194abcd8ac1cf1b355b8b93c33611c4b565b60cb8290558015610908576000805461ff00191690555050565b6000808383604051602001610fb692919061351a565b60408051601f198184030181529181528151602092830120600081815260c990935291206002015490915060ff166110305760405162461bcd60e51b815260206004820152601f60248201527f536f7572636520636861696e206973206e6f7420696e697469616c697a656400604482015260640161064a565b600090815260c960205260409020549392505050565b8051600090815260ce6020908152604080832082850151845290915281205461106e83611c55565b81141561107a57600191505b50919050565b6000828152609760205260408120610c929083611601565b60009182526065602090815260408084206001600160a01b0393909316845291905290205460ff1690565b6110ce838383611cc1565b60006040518060a00160405280858152602001600160c960008881526020019081526020016000206001015461110491906138c5565b81523360208201526001600160a01b0385166040820152606001839052805190915061112f82611c55565b600082815260ce6020908152604080832060d0808452828520805486529184529184209490945584835290528154600192919061116d90849061387a565b90915550505050505050565b600060c9600083604051602001611190919061352a565b60408051601f198184030181529181528151602092830120835290820192909252016000206002015460ff1692915050565b6111da600080516020613ae783398151915233611098565b6111f65760405162461bcd60e51b815260040161064a906136bb565b6112018160d161099e565b61124d5760405162461bcd60e51b815260206004820181905260248201527f457874726120636f6e7472616374206973206e6f742072656769737465726564604482015260640161064a565b6000805260d160205261127f7efa5413e7b01fc543d01f0911de573ace463b956369df4472f39030e8d98b77826116c2565b506040516001600160a01b03821681526000907f4d393b64277bfc0b02e0459a74c316c7f22069352a678319fd8139ba4085e06190602001610a3b565b60008181526097602052604081206105b3906115f7565b6112eb600080516020613ae783398151915233611098565b6113075760405162461bcd60e51b815260040161064a906136bb565b60008260405160200161131a919061352a565b60405160208183030381529060405280519060200120905060cd548114156113545760405162461bcd60e51b815260040161064a90613752565b6107318183611def565b6107408282611f4f565b6000828260405160200161137d92919061351a565b60405160208183030381529060405280519060200120905060cd548114156113e75760405162461bcd60e51b815260206004820152601c60248201527f53636861696e2063616e6e6f7420636f6e6e65637420697473656c6600000000604482015260640161064a565b61073181611f75565b600054610100900460ff1680611409575060005460ff16155b6114255760405162461bcd60e51b815260040161064a90613704565b600054610100900460ff16158015611447576000805461ffff19166101011790555b611453622dc6c0610ec2565b60cc80546001600160a01b0385166001600160a01b031990911617905560408051606081018252600080825260208083018290526001838501529251919260c9926114ac91016613585a5b9b995d60ca1b815260070190565b60408051808303601f19018152918152815160209283012083528282019390935290820160002083518155838201516001820155928201516002909301805460ff191693151593909317909255516115069184910161352a565b60408051601f19818403018152919052805160209091012060cd558015610731576000805461ff0019169055505050565b61154f600080516020613ae783398151915233611098565b61156b5760405162461bcd60e51b815260040161064a906136bb565b60008260405160200161157e919061352a565b60405160208183030381529060405280519060200120905060cd548114156115b85760405162461bcd60e51b815260040161064a90613752565b610731818361205b565b60006001600160e01b03198216637965db0b60e01b14806105b357506301ffc9a760e01b6001600160e01b03198316146105b3565b60006105b3825490565b6000610c928383612106565b6000828152606560205260409020600101546116298133612130565b6107318383612194565b6000610c92836001600160a01b03841661221a565b6001600160a01b03811633146116b85760405162461bcd60e51b815260206004820152602f60248201527f416363657373436f6e74726f6c3a2063616e206f6e6c792072656e6f756e636560448201526e103937b632b9903337b91039b2b63360891b606482015260840161064a565b6109088282612269565b6000610c92836001600160a01b0384166122d0565b6116ef600080516020613b2783398151915233611098565b61170b5760405162461bcd60e51b815260040161064a90613686565b60008160405160200161171e919061352a565b60408051601f198184030181529181528151602092830120600081815260c990935291206002015490915060ff166117935760405162461bcd60e51b815260206004820152601860248201527710da185a5b881a5cc81b9bdd081a5b9a5d1a585b1a5e995960421b604482015260640161064a565b600090815260c9602052604081208181556001810191909155600201805460ff1916905550565b6001600160a01b03811660009081526001830160205260408120541515610c92565b6000606060005b838110156118d757818585838181106117fe576117fe613a00565b90506020028101906118109190613864565b61181e906020810190613050565b60601b6001600160601b03191686868481811061183d5761183d613a00565b905060200281019061184f9190613864565b611860906040810190602001613050565b60601b6001600160601b03191687878581811061187f5761187f613a00565b90506020028101906118919190613864565b61189f90604081019061381e565b6040516020016118b39594939291906134e0565b604051602081830303815290604052915080806118cf9061398f565b9150506117e3565b5080516020909101209392505050565b604080518082018252823581526020808401359082015260cc548251632aa77bd360e11b81528351600094610c92949388936080808a013594938a01359360608b0135936001600160a01b03169263554ef7a6926004808301939192829003018186803b15801561195757600080fd5b505afa15801561196b573d6000803e3d6000fd5b505050506040513d601f19601f8201168201806040525081019061198f919061338c565b6123ca565b60006119b86119a96040850160208601613050565b6001600160a01b03163b151590565b611a3b57817f4b7d3908626050c0d998d657e4e6f31cb43ed736bf2b9a1a0192494537ca0e59604051611a2b9060208082526026908201527f44657374696e6174696f6e20636f6e7472616374206973206e6f74206120636f6040820152651b9d1c9858dd60d21b606082015260800190565b60405180910390a2506000610c92565b611a4b6040840160208501613050565b6001600160a01b031663884cee5a60cb5486866000016020810190611a709190613050565b611a7d604089018961381e565b6040518663ffffffff1660e01b8152600401611a9c949392919061362c565b602060405180830381600088803b158015611ab657600080fd5b5087f193505050508015611ae7575060408051601f3d908101601f19168201909252611ae49181019061306d565b60015b611bb757611af3613a2c565b806308c379a01415611b555750611b08613a48565b80611b135750611b57565b827f4b7d3908626050c0d998d657e4e6f31cb43ed736bf2b9a1a0192494537ca0e5982604051611b439190613673565b60405180910390a26000915050610c92565b505b3d808015611b81576040519150601f19603f3d011682016040523d82523d6000602084013e611b86565b606091505b50827f4b7d3908626050c0d998d657e4e6f31cb43ed736bf2b9a1a0192494537ca0e5982604051611b439190613673565b949350505050565b600054610100900460ff1680611bd8575060005460ff16155b611bf45760405162461bcd60e51b815260040161064a90613704565b600054610100900460ff16158015611c16576000805461ffff19166101011790555b611c1e612594565b611c26612594565b611c2e612594565b611c36612594565b8015611c48576000805461ff00191690555b50565b61071982826125fe565b6000808260000151836020015160001b846040015160601b6001600160601b031916856060015160601b6001600160601b0319168660800151604051602001611ca29594939291906134a5565b60408051601f1981840301815291905280516020909101209392505050565b600083815260c9602052604090206002015460ff16611cf25760405162461bcd60e51b815260040161064a90613796565b611cfd600033610c7a565b80611d0d5750611d0d8333610c7a565b611d635760405162461bcd60e51b815260206004820152602160248201527f53656e64657220636f6e7472616374206973206e6f74207265676973746572656044820152601960fa1b606482015260840161064a565b336001600160a01b031660c9600085815260200190815260200160002060010154847f803d7f3ca0e5f93fcce39fa29812ed57a95a151594966e17125220132741c6b08585604051611db69291906135bb565b60405180910390a4600160c960008581526020019081526020016000206001016000828254611de5919061387a565b9091555050505050565b6001600160a01b0381163b611e465760405162461bcd60e51b815260206004820152601f60248201527f476976656e2061646472657373206973206e6f74206120636f6e747261637400604482015260640161064a565b611e628160d15b600085815260209190915260409020906117ba565b15611e7f5760405162461bcd60e51b815260040161064a906137da565b611e8a8160d161099e565b15611ef35760405162461bcd60e51b815260206004820152603360248201527f457874726120636f6e747261637420697320616c7265616479207265676973746044820152726572656420666f7220616c6c20636861696e7360681b606482015260840161064a565b600082815260d160205260409020611f0b9082611633565b506040516001600160a01b038216815282907f03bcd152926369e3cf05cb7af471a15d680e8ec5d20b13705048d14e94679365906020015b60405180910390a25050565b600082815260656020526040902060010154611f6b8133612130565b6107318383612269565b611f8d600080516020613b2783398151915233611098565b611fa95760405162461bcd60e51b815260040161064a90613686565b600081815260c9602052604090206002015460ff161561200b5760405162461bcd60e51b815260206004820152601a60248201527f436861696e20697320616c726561647920636f6e6e6563746564000000000000604482015260640161064a565b6040805160608101825260008082526020808301828152600184860181815296845260c9909252939091209151825591519181019190915590516002909101805460ff1916911515919091179055565b6120668160d1611e4d565b6120b25760405162461bcd60e51b815260206004820181905260248201527f457874726120636f6e7472616374206973206e6f742072656769737465726564604482015260640161064a565b600082815260d1602052604090206120ca90826116c2565b506040516001600160a01b038216815282907f4d393b64277bfc0b02e0459a74c316c7f22069352a678319fd8139ba4085e06190602001611f43565b600082600001828154811061211d5761211d613a00565b9060005260206000200154905092915050565b61213a8282611098565b61090857612152816001600160a01b03166014612608565b61215d836020612608565b60405160200161216e929190613546565b60408051601f198184030181529082905262461bcd60e51b825261064a91600401613673565b61219e8282611098565b6109085760008281526065602090815260408083206001600160a01b03851684529091529020805460ff191660011790556121d63390565b6001600160a01b0316816001600160a01b0316837f2f8788117e7eff1d82e926ec794901d17c78024a50270940304540a733656f0d60405160405180910390a45050565b6000818152600183016020526040812054612261575081546001818101845560008481526020808220909301849055845484825282860190935260409020919091556105b3565b5060006105b3565b6122738282611098565b156109085760008281526065602090815260408083206001600160a01b0385168085529252808320805460ff1916905551339285917ff6391f5c32d9c69d2a47ea670b442974b53935d1edc7fd64eb21e047a839171b9190a45050565b600081815260018301602052604081205480156123b95760006122f46001836138c5565b8554909150600090612308906001906138c5565b905081811461236d57600086600001828154811061232857612328613a00565b906000526020600020015490508087600001848154811061234b5761234b613a00565b6000918252602080832090910192909255918252600188019052604090208390555b855486908061237e5761237e6139ea565b6001900381819060005260206000200160009055905585600101600086815260200190815260200160002060009055600193505050506105b3565b60009150506105b3565b5092915050565b60006123d5876127a3565b61241a5760405162461bcd60e51b815260206004820152601660248201527514da59db985d1d5c99481a5cc81b9bdd081d985b1a5960521b604482015260640161064a565b612426868686866127d9565b6124325750600061258a565b600061244188602001516128c5565b90506124518860000151826128ea565b61248e5760405162461bcd60e51b815260206004820152600e60248201526d5369676e206e6f7420696e20473160901b604482015260640161064a565b61249885856128ea565b6124d55760405162461bcd60e51b815260206004820152600e60248201526d48617368206e6f7420696e20473160901b604482015260640161064a565b60006124df612920565b90506124ea846129e0565b61252d5760405162461bcd60e51b8152602060048201526014602482015273283ab13634b19025b2bc903737ba1034b710239960611b604482015260640161064a565b6125858960000151838360000151602001518460000151600001518560200151602001518660200151600001518c8c8c60000151602001518d60000151600001518e60200151602001518f60200151600001516129f4565b925050505b9695505050505050565b600054610100900460ff16806125ad575060005460ff16155b6125c95760405162461bcd60e51b815260040161064a90613704565b600054610100900460ff16158015611c36576000805461ffff19166101011790558015611c48576000805461ff001916905550565b6109088282612194565b606060006126178360026138a6565b61262290600261387a565b6001600160401b0381111561263957612639613a16565b6040519080825280601f01601f191660200182016040528015612663576020820181803683370190505b509050600360fc1b8160008151811061267e5761267e613a00565b60200101906001600160f81b031916908160001a905350600f60fb1b816001815181106126ad576126ad613a00565b60200101906001600160f81b031916908160001a90535060006126d18460026138a6565b6126dc90600161387a565b90505b6001811115612754576f181899199a1a9b1b9c1cb0b131b232b360811b85600f166010811061271057612710613a00565b1a60f81b82828151811061272657612726613a00565b60200101906001600160f81b031916908160001a90535060049490941c9361274d81613908565b90506126df565b508315610c925760405162461bcd60e51b815260206004820181905260248201527f537472696e67733a20686578206c656e67746820696e73756666696369656e74604482015260640161064a565b6000600080516020613b0783398151915282600001511080156105b357505060200151600080516020613b078339815191521190565b600060648411156127ec57506000611bb7565b6000612806600080516020613b07833981519152876139aa565b9050600080516020613b07833981519152612821868361387a565b61282b91906139aa565b90506000600080516020613b078339815191526003600080516020613b0783398151915284600080516020613b078339815191528687090908905061287f6002600080516020613b07833981519152613892565b84108061289d575080600080516020613b0783398151915285860914155b806128a85750848214155b156128b857600092505050611bb7565b5060019695505050505050565b6000600080516020613b078339815191526128e083826138c5565b6105b391906139aa565b6000600080516020613b0783398151915280600381868188890909088180612914576129146139d4565b84850914949350505050565b612928612e9a565b50604080516080810182527f1800deef121f1e76426a00665e5c4479674322d4f75edadd46debd5cd992f6ed8183019081527f198e9393920d483a7260bfb731fb5d25f1aa493335a9e71297e485b7aef312c26060830152815281518083019092527f12c85ea5db8c6deb4aab71808dcb408fe3d1e7690c43d37b4ce6cc0166fa7daa82527f090689d0585ff075ec9e99ad690c3395bc4b313370b38ef355acdadcd122975b60208381019190915281019190915290565b60006105b382600001518360200151612ac4565b6000806129ff612ede565b8e8152602081018e9052604081018d9052606081018c9052608081018b905260a081018a905260c0810189905260e081018890526101008101879052610120810186905261014081018590526101608101849052612a5b612efd565b602081610180846008600019fa925082612aae5760405162461bcd60e51b815260206004820152601460248201527314185a5c9a5b99c818da1958dac819985a5b195960621b604482015260640161064a565b5115159f9e505050505050505050505050505050565b6000612ad08383612b98565b15612add575060016105b3565b6000612ae883612bcb565b90506000612b7b612b58604080518082018252600080825260209182015281518083019092527f2b149d40ceb8aaae81be18991be06ac3b5b4c5e559dbefa33267e6dc24a138e582527e9713b03af0fed4cd2cafadeed8fdf4a74fa084e52d1852e4a2bd0685c315d29082015290565b612b75612b6e88612b688a612bcb565b90612c81565b8590612d94565b90612d94565b8051909150158015612b8f57506020810151155b95945050505050565b8151600090158015612bac57506020830151155b8015612bb9575081516001145b8015610c925750506020015115919050565b6040805180820190915260008082526020820152600080516020613b078339815191526000816020850151855109905060008280612c0b57612c0b6139d4565b8380612c1957612c196139d4565b8480612c2757612c276139d4565b6020880151612c376001886138c5565b098751088480612c4957612c496139d4565b602088015188510809905060405180604001604052808281526020018480612c7357612c736139d4565b848508905295945050505050565b60408051808201909152600080825260208201526000600080516020613b078339815191529050600060405180604001604052808380612cc357612cc36139d4565b865188510981526020018380612cdb57612cdb6139d4565b8660200151886020015109905290508180612cf857612cf86139d4565b8280612d0657612d066139d4565b6020830151612d166001866138c5565b0982510883528180612d2a57612d2a6139d4565b8280612d3857612d386139d4565b6020830151835108612d4a90846138c5565b8380612d5857612d586139d4565b8480612d6657612d666139d4565b60208801518851088580612d7c57612d7c6139d4565b60208a01518a51080908602084015250909392505050565b604080518082019091526000808252602082015281518351600080516020613b078339815191529111612de5578080612dcf57612dcf6139d4565b8351612ddb90836138c5565b8551088252612e1a565b808180612df457612df46139d4565b8551612e0090846138c5565b855108612e0d90836138c5565b612e1791906139aa565b82525b8260200151846020015110612e56578080612e3757612e376139d4565b6020840151612e4690836138c5565b85602001510860208301526123c3565b808180612e6557612e656139d4565b6020860151612e7490846138c5565b856020015108612e8490836138c5565b612e8e91906139aa565b60208301525092915050565b60408051608081018252600091810182815260608201929092529081908152602001612ed9604051806040016040528060008152602001600081525090565b905290565b604051806101800160405280600c906020820280368337509192915050565b60405180602001604052806001906020820280368337509192915050565b60008083601f840112612f2d57600080fd5b5081356001600160401b03811115612f4457600080fd5b6020830191508360208260051b8501011115612f5f57600080fd5b9250929050565b600082601f830112612f7757600080fd5b81356001600160401b03811115612f9057612f90613a16565b604051612fa7601f8301601f191660200182613963565b818152846020838601011115612fbc57600080fd5b816020850160208301376000918101602001919091529392505050565b60008083601f840112612feb57600080fd5b5081356001600160401b0381111561300257600080fd5b602083019150836020828501011115612f5f57600080fd5b60006040828403121561302c57600080fd5b6040516130388161391f565b80915082518152602083015160208201525092915050565b60006020828403121561306257600080fd5b8135610c9281613ad1565b60006020828403121561307f57600080fd5b8151610c9281613ad1565b60006020828403121561309c57600080fd5b5035919050565b600080604083850312156130b657600080fd5b8235915060208301356130c881613ad1565b809150509250929050565b6000806000606084860312156130e857600080fd5b8335925060208401356130fa81613ad1565b915060408401356001600160401b0381111561311557600080fd5b61312186828701612f66565b9150509250925092565b60008060006040848603121561314057600080fd5b8335925060208401356001600160401b0381111561315d57600080fd5b61316986828701612f1b565b9497909650939450505050565b6000806040838503121561318957600080fd5b50508035926020909101359150565b6000806000606084860312156131ad57600080fd5b505081359360208301359350604090920135919050565b6000602082840312156131d657600080fd5b81356001600160e01b031981168114610c9257600080fd5b6000806040838503121561320157600080fd5b823561320c81613ad1565b915060208301356001600160401b0381111561322757600080fd5b61323385828601612f66565b9150509250929050565b6000806020838503121561325057600080fd5b82356001600160401b0381111561326657600080fd5b61327285828601612fd9565b90969095509350505050565b60008060008060008086880361010081121561329957600080fd5b87356001600160401b03808211156132b057600080fd5b6132bc8b838c01612fd9565b909950975060208a0135965060408a01359150808211156132dc57600080fd5b506132e98a828b01612f1b565b90955093505060a0605f198201121561330157600080fd5b506060870190509295509295509295565b60006020828403121561332457600080fd5b81356001600160401b0381111561333a57600080fd5b611bb784828501612f66565b6000806040838503121561335957600080fd5b82356001600160401b0381111561336f57600080fd5b61337b85828601612f66565b92505060208301356130c881613ad1565b60006080828403121561339e57600080fd5b6040516133aa8161391f565b6133b4848461301a565b81526133c3846040850161301a565b60208201529392505050565b6000602082840312156133e157600080fd5b81356001600160401b03808211156133f857600080fd5b9083019060a0828603121561340c57600080fd5b60405161341881613944565b8235815260208301356020820152604083013561343481613ad1565b6040820152606083013561344781613ad1565b606082015260808301358281111561345e57600080fd5b61346a87828601612f66565b60808301525095945050505050565b600081518084526134918160208601602086016138dc565b601f01601f19169290920160200192915050565b858152846020820152836040820152826060820152600082516134cf8160808501602087016138dc565b919091016080019695505050505050565b600086516134f2818460208b016138dc565b8201868152602081018690528385604083013760009301604001928352509095945050505050565b8183823760009101908152919050565b6000825161353c8184602087016138dc565b9190910192915050565b7f416363657373436f6e74726f6c3a206163636f756e742000000000000000000081526000835161357e8160178501602088016138dc565b7001034b99036b4b9b9b4b733903937b6329607d1b60179184019182015283516135af8160288401602088016138dc565b01602801949350505050565b6001600160a01b0383168152604060208201819052600090611bb790830184613479565b6020808252825182820181905260009190848201906040850190845b818110156136205783516001600160a01b0316835292840192918401916001016135fb565b50909695505050505050565b8481526001600160a01b03841660208201526060604082018190528101829052818360808301376000818301608090810191909152601f909201601f191601019392505050565b602081526000610c926020830184613479565b6020808252818101527f434841494e5f434f4e4e4543544f525f524f4c45206973207265717569726564604082015260600190565b60208082526029908201527f45585452415f434f4e54524143545f5245474953545241525f524f4c45206973604082015268081c995c5d5a5c995960ba1b606082015260800190565b6020808252602e908201527f496e697469616c697a61626c653a20636f6e747261637420697320616c72656160408201526d191e481a5b9a5d1a585b1a5e995960921b606082015260800190565b60208082526024908201527f53636861696e20686173682063616e206e6f7420626520657175616c204d61696040820152631b9b995d60e21b606082015260800190565b60208082526024908201527f44657374696e6174696f6e20636861696e206973206e6f7420696e697469616c6040820152631a5e995960e21b606082015260800190565b60208082526024908201527f457874726120636f6e747261637420697320616c726561647920726567697374604082015263195c995960e21b606082015260800190565b6000808335601e1984360301811261383557600080fd5b8301803591506001600160401b0382111561384f57600080fd5b602001915036819003821315612f5f57600080fd5b60008235605e1983360301811261353c57600080fd5b6000821982111561388d5761388d6139be565b500190565b6000826138a1576138a16139d4565b500490565b60008160001904831182151516156138c0576138c06139be565b500290565b6000828210156138d7576138d76139be565b500390565b60005b838110156138f75781810151838201526020016138df565b83811115610e435750506000910152565b600081613917576139176139be565b506000190190565b604081018181106001600160401b038211171561393e5761393e613a16565b60405250565b60a081018181106001600160401b038211171561393e5761393e613a16565b601f8201601f191681016001600160401b038111828210171561398857613988613a16565b6040525050565b60006000198214156139a3576139a36139be565b5060010190565b6000826139b9576139b96139d4565b500690565b634e487b7160e01b600052601160045260246000fd5b634e487b7160e01b600052601260045260246000fd5b634e487b7160e01b600052603160045260246000fd5b634e487b7160e01b600052603260045260246000fd5b634e487b7160e01b600052604160045260246000fd5b600060033d1115613a455760046000803e5060005160e01c5b90565b600060443d1015613a565790565b6040516003193d81016004833e81513d6001600160401b038160248401118184111715613a8557505050505090565b8285019150815181811115613a9d5750505050505090565b843d8701016020828501011115613ab75750505050505090565b613ac660208286010187613963565b509095945050505050565b6001600160a01b0381168114611c4857600080fdfe6155b5aac15ce9aa193c0527a6f43be0a36a7e2e7496c2b615c0e5f92284277330644e72e131a029b85045b68181585d97816a916871ca8d3c208c16d87cfd472785f35fe7d8743aa971942d8474737bb31895d396eff2cc688a481e0221e191a2646970667358221220c271185274666f419d4c7d34b3a58ab77843b6381beebafc6818ac7d96c03f5764736f6c63430008060033",
  "linkReferences": {},
  "deployedLinkReferences": {}
}