{
  "_format": "hh-sol-artifact-1",
  "contractName": "MessageProxyForSchain",
  "sourceName": "contracts/schain/MessageProxyForSchain.sol",
  "abi": [
    {
      "anonymous": false,
      "inputs": [
        {
          "indexed": false,
          "internalType": "uint256",
          "name": "oldValue",
          "type": "uint256"
        },
        {
          "indexed": false,
          "internalType": "uint256",
          "name": "newValue",
          "type": "uint256"
        }
      ],
      "name": "GasLimitWasChanged",
      "type": "event"
    },
    {
      "anonymous": false,
      "inputs": [
        {
          "indexed": true,
          "internalType": "bytes32",
          "name": "dstChainHash",
          "type": "bytes32"
        },
        {
          "indexed": true,
          "internalType": "uint256",
          "name": "msgCounter",
          "type": "uint256"
        },
        {
          "indexed": true,
          "internalType": "address",
          "name": "srcContract",
          "type": "address"
        },
        {
          "indexed": false,
          "internalType": "address",
          "name": "dstContract",
          "type": "address"
        },
        {
          "indexed": false,
          "internalType": "bytes",
          "name": "data",
          "type": "bytes"
        }
      ],
      "name": "OutgoingMessage",
      "type": "event"
    },
    {
      "anonymous": false,
      "inputs": [
        {
          "indexed": true,
          "internalType": "uint256",
          "name": "msgCounter",
          "type": "uint256"
        },
        {
          "indexed": false,
          "internalType": "bytes",
          "name": "message",
          "type": "bytes"
        }
      ],
      "name": "PostMessageError",
      "type": "event"
    },
    {
      "anonymous": false,
      "inputs": [
        {
          "indexed": true,
          "internalType": "bytes32",
          "name": "role",
          "type": "bytes32"
        },
        {
          "indexed": true,
          "internalType": "bytes32",
          "name": "previousAdminRole",
          "type": "bytes32"
        },
        {
          "indexed": true,
          "internalType": "bytes32",
          "name": "newAdminRole",
          "type": "bytes32"
        }
      ],
      "name": "RoleAdminChanged",
      "type": "event"
    },
    {
      "anonymous": false,
      "inputs": [
        {
          "indexed": true,
          "internalType": "bytes32",
          "name": "role",
          "type": "bytes32"
        },
        {
          "indexed": true,
          "internalType": "address",
          "name": "account",
          "type": "address"
        },
        {
          "indexed": true,
          "internalType": "address",
          "name": "sender",
          "type": "address"
        }
      ],
      "name": "RoleGranted",
      "type": "event"
    },
    {
      "anonymous": false,
      "inputs": [
        {
          "indexed": true,
          "internalType": "bytes32",
          "name": "role",
          "type": "bytes32"
        },
        {
          "indexed": true,
          "internalType": "address",
          "name": "account",
          "type": "address"
        },
        {
          "indexed": true,
          "internalType": "address",
          "name": "sender",
          "type": "address"
        }
      ],
      "name": "RoleRevoked",
      "type": "event"
    },
    {
      "inputs": [],
      "name": "CHAIN_CONNECTOR_ROLE",
      "outputs": [
        {
          "internalType": "bytes32",
          "name": "",
          "type": "bytes32"
        }
      ],
      "stateMutability": "view",
      "type": "function"
    },
    {
      "inputs": [],
      "name": "CONSTANT_SETTER_ROLE",
      "outputs": [
        {
          "internalType": "bytes32",
          "name": "",
          "type": "bytes32"
        }
      ],
      "stateMutability": "view",
      "type": "function"
    },
    {
      "inputs": [],
      "name": "DEFAULT_ADMIN_ROLE",
      "outputs": [
        {
          "internalType": "bytes32",
          "name": "",
          "type": "bytes32"
        }
      ],
      "stateMutability": "view",
      "type": "function"
    },
    {
      "inputs": [],
      "name": "EXTRA_CONTRACT_REGISTRAR_ROLE",
      "outputs": [
        {
          "internalType": "bytes32",
          "name": "",
          "type": "bytes32"
        }
      ],
      "stateMutability": "view",
      "type": "function"
    },
    {
      "inputs": [],
      "name": "MAINNET_HASH",
      "outputs": [
        {
          "internalType": "bytes32",
          "name": "",
          "type": "bytes32"
        }
      ],
      "stateMutability": "view",
      "type": "function"
    },
    {
      "inputs": [],
      "name": "MESSAGES_LENGTH",
      "outputs": [
        {
          "internalType": "uint256",
          "name": "",
          "type": "uint256"
        }
      ],
      "stateMutability": "view",
      "type": "function"
    },
    {
      "inputs": [
        {
          "internalType": "string",
          "name": "chainName",
          "type": "string"
        }
      ],
      "name": "addConnectedChain",
      "outputs": [],
      "stateMutability": "nonpayable",
      "type": "function"
    },
    {
      "inputs": [
        {
          "internalType": "bytes32",
          "name": "",
          "type": "bytes32"
        }
      ],
      "name": "connectedChains",
      "outputs": [
        {
          "internalType": "uint256",
          "name": "incomingMessageCounter",
          "type": "uint256"
        },
        {
          "internalType": "uint256",
          "name": "outgoingMessageCounter",
          "type": "uint256"
        },
        {
          "internalType": "bool",
          "name": "inited",
          "type": "bool"
        }
      ],
      "stateMutability": "view",
      "type": "function"
    },
    {
      "inputs": [],
      "name": "gasLimit",
      "outputs": [
        {
          "internalType": "uint256",
          "name": "",
          "type": "uint256"
        }
      ],
      "stateMutability": "view",
      "type": "function"
    },
    {
      "inputs": [
        {
          "internalType": "string",
          "name": "fromSchainName",
          "type": "string"
        }
      ],
      "name": "getIncomingMessagesCounter",
      "outputs": [
        {
          "internalType": "uint256",
          "name": "",
          "type": "uint256"
        }
      ],
      "stateMutability": "view",
      "type": "function"
    },
    {
      "inputs": [
        {
          "internalType": "string",
          "name": "targetSchainName",
          "type": "string"
        }
      ],
      "name": "getOutgoingMessagesCounter",
      "outputs": [
        {
          "internalType": "uint256",
          "name": "",
          "type": "uint256"
        }
      ],
      "stateMutability": "view",
      "type": "function"
    },
    {
      "inputs": [
        {
          "internalType": "bytes32",
          "name": "role",
          "type": "bytes32"
        }
      ],
      "name": "getRoleAdmin",
      "outputs": [
        {
          "internalType": "bytes32",
          "name": "",
          "type": "bytes32"
        }
      ],
      "stateMutability": "view",
      "type": "function"
    },
    {
      "inputs": [
        {
          "internalType": "bytes32",
          "name": "role",
          "type": "bytes32"
        },
        {
          "internalType": "uint256",
          "name": "index",
          "type": "uint256"
        }
      ],
      "name": "getRoleMember",
      "outputs": [
        {
          "internalType": "address",
          "name": "",
          "type": "address"
        }
      ],
      "stateMutability": "view",
      "type": "function"
    },
    {
      "inputs": [
        {
          "internalType": "bytes32",
          "name": "role",
          "type": "bytes32"
        }
      ],
      "name": "getRoleMemberCount",
      "outputs": [
        {
          "internalType": "uint256",
          "name": "",
          "type": "uint256"
        }
      ],
      "stateMutability": "view",
      "type": "function"
    },
    {
      "inputs": [
        {
          "internalType": "bytes32",
          "name": "role",
          "type": "bytes32"
        },
        {
          "internalType": "address",
          "name": "account",
          "type": "address"
        }
      ],
      "name": "grantRole",
      "outputs": [],
      "stateMutability": "nonpayable",
      "type": "function"
    },
    {
      "inputs": [
        {
          "internalType": "bytes32",
          "name": "role",
          "type": "bytes32"
        },
        {
          "internalType": "address",
          "name": "account",
          "type": "address"
        }
      ],
      "name": "hasRole",
      "outputs": [
        {
          "internalType": "bool",
          "name": "",
          "type": "bool"
        }
      ],
      "stateMutability": "view",
      "type": "function"
    },
    {
      "inputs": [
        {
          "internalType": "contract IKeyStorage",
          "name": "blsKeyStorage",
          "type": "address"
        },
        {
          "internalType": "string",
          "name": "schainName",
          "type": "string"
        }
      ],
      "name": "initialize",
      "outputs": [],
      "stateMutability": "nonpayable",
      "type": "function"
    },
    {
      "inputs": [
        {
          "internalType": "uint256",
          "name": "newGasLimit",
          "type": "uint256"
        }
      ],
      "name": "initializeMessageProxy",
      "outputs": [],
      "stateMutability": "nonpayable",
      "type": "function"
    },
    {
      "inputs": [
        {
          "internalType": "string",
          "name": "schainName",
          "type": "string"
        }
      ],
      "name": "isConnectedChain",
      "outputs": [
        {
          "internalType": "bool",
          "name": "",
          "type": "bool"
        }
      ],
      "stateMutability": "view",
      "type": "function"
    },
    {
      "inputs": [
        {
          "internalType": "string",
          "name": "schainName",
          "type": "string"
        },
        {
          "internalType": "address",
          "name": "contractAddress",
          "type": "address"
        }
      ],
      "name": "isContractRegistered",
      "outputs": [
        {
          "internalType": "bool",
          "name": "",
          "type": "bool"
        }
      ],
      "stateMutability": "view",
      "type": "function"
    },
    {
      "inputs": [],
      "name": "keyStorage",
      "outputs": [
        {
          "internalType": "contract IKeyStorage",
          "name": "",
          "type": "address"
        }
      ],
      "stateMutability": "view",
      "type": "function"
    },
    {
      "inputs": [
        {
          "internalType": "string",
          "name": "fromChainName",
          "type": "string"
        },
        {
          "internalType": "uint256",
          "name": "startingCounter",
          "type": "uint256"
        },
        {
          "components": [
            {
              "internalType": "address",
              "name": "sender",
              "type": "address"
            },
            {
              "internalType": "address",
              "name": "destinationContract",
              "type": "address"
            },
            {
              "internalType": "bytes",
              "name": "data",
              "type": "bytes"
            }
          ],
          "internalType": "struct IMessageProxy.Message[]",
          "name": "messages",
          "type": "tuple[]"
        },
        {
          "components": [
            {
              "internalType": "uint256[2]",
              "name": "blsSignature",
              "type": "uint256[2]"
            },
            {
              "internalType": "uint256",
              "name": "hashA",
              "type": "uint256"
            },
            {
              "internalType": "uint256",
              "name": "hashB",
              "type": "uint256"
            },
            {
              "internalType": "uint256",
              "name": "counter",
              "type": "uint256"
            }
          ],
          "internalType": "struct IMessageProxy.Signature",
          "name": "signature",
          "type": "tuple"
        }
      ],
      "name": "postIncomingMessages",
      "outputs": [],
      "stateMutability": "nonpayable",
      "type": "function"
    },
    {
      "inputs": [
        {
          "internalType": "bytes32",
          "name": "targetChainHash",
          "type": "bytes32"
        },
        {
          "internalType": "address",
          "name": "targetContract",
          "type": "address"
        },
        {
          "internalType": "bytes",
          "name": "data",
          "type": "bytes"
        }
      ],
      "name": "postOutgoingMessage",
      "outputs": [],
      "stateMutability": "nonpayable",
      "type": "function"
    },
    {
      "inputs": [
        {
          "internalType": "string",
          "name": "chainName",
          "type": "string"
        },
        {
          "internalType": "address",
          "name": "extraContract",
          "type": "address"
        }
      ],
      "name": "registerExtraContract",
      "outputs": [],
      "stateMutability": "nonpayable",
      "type": "function"
    },
    {
      "inputs": [
        {
          "internalType": "address",
          "name": "extraContract",
          "type": "address"
        }
      ],
      "name": "registerExtraContractForAll",
      "outputs": [],
      "stateMutability": "nonpayable",
      "type": "function"
    },
    {
      "inputs": [
        {
          "internalType": "bytes32",
          "name": "",
          "type": "bytes32"
        },
        {
          "internalType": "address",
          "name": "",
          "type": "address"
        }
      ],
      "name": "registryContracts",
      "outputs": [
        {
          "internalType": "bool",
          "name": "",
          "type": "bool"
        }
      ],
      "stateMutability": "view",
      "type": "function"
    },
    {
      "inputs": [
        {
          "internalType": "string",
          "name": "chainName",
          "type": "string"
        }
      ],
      "name": "removeConnectedChain",
      "outputs": [],
      "stateMutability": "nonpayable",
      "type": "function"
    },
    {
      "inputs": [
        {
          "internalType": "string",
          "name": "chainName",
          "type": "string"
        },
        {
          "internalType": "address",
          "name": "extraContract",
          "type": "address"
        }
      ],
      "name": "removeExtraContract",
      "outputs": [],
      "stateMutability": "nonpayable",
      "type": "function"
    },
    {
      "inputs": [
        {
          "internalType": "address",
          "name": "extraContract",
          "type": "address"
        }
      ],
      "name": "removeExtraContractForAll",
      "outputs": [],
      "stateMutability": "nonpayable",
      "type": "function"
    },
    {
      "inputs": [
        {
          "internalType": "bytes32",
          "name": "role",
          "type": "bytes32"
        },
        {
          "internalType": "address",
          "name": "account",
          "type": "address"
        }
      ],
      "name": "renounceRole",
      "outputs": [],
      "stateMutability": "nonpayable",
      "type": "function"
    },
    {
      "inputs": [
        {
          "internalType": "bytes32",
          "name": "role",
          "type": "bytes32"
        },
        {
          "internalType": "address",
          "name": "account",
          "type": "address"
        }
      ],
      "name": "revokeRole",
      "outputs": [],
      "stateMutability": "nonpayable",
      "type": "function"
    },
    {
      "inputs": [],
      "name": "schainHash",
      "outputs": [
        {
          "internalType": "bytes32",
          "name": "",
          "type": "bytes32"
        }
      ],
      "stateMutability": "view",
      "type": "function"
    },
    {
      "inputs": [
        {
          "internalType": "uint256",
          "name": "newGasLimit",
          "type": "uint256"
        }
      ],
      "name": "setNewGasLimit",
      "outputs": [],
      "stateMutability": "nonpayable",
      "type": "function"
    },
    {
      "inputs": [
        {
          "internalType": "bytes4",
          "name": "interfaceId",
          "type": "bytes4"
        }
      ],
      "name": "supportsInterface",
      "outputs": [
        {
          "internalType": "bool",
          "name": "",
          "type": "bool"
        }
      ],
      "stateMutability": "view",
      "type": "function"
    },
    {
      "inputs": [
        {
          "components": [
            {
              "internalType": "bytes32",
              "name": "dstChainHash",
              "type": "bytes32"
            },
            {
              "internalType": "uint256",
              "name": "msgCounter",
              "type": "uint256"
            },
            {
              "internalType": "address",
              "name": "srcContract",
              "type": "address"
            },
            {
              "internalType": "address",
              "name": "dstContract",
              "type": "address"
            },
            {
              "internalType": "bytes",
              "name": "data",
              "type": "bytes"
            }
          ],
          "internalType": "struct IMessageProxyForSchain.OutgoingMessageData",
          "name": "message",
          "type": "tuple"
        }
      ],
      "name": "verifyOutgoingMessageData",
      "outputs": [
        {
          "internalType": "bool",
          "name": "isValidMessage",
          "type": "bool"
        }
      ],
      "stateMutability": "view",
      "type": "function"
    }
  ],
  "bytecode": "0x608060405234801561001057600080fd5b50613808806100206000396000f3fe608060405234801561001057600080fd5b50600436106102115760003560e01c80639010d07c11610125578063cab010c9116100ad578063f2f636051161007c578063f2f636051461050b578063f399e22e1461051e578063f68016b714610531578063f79f79541461053a578063f8c88a161461054d57600080fd5b8063cab010c914610483578063d547741f14610496578063e356a6f9146104a9578063e6ab8403146104bc57600080fd5b8063a217fddf116100f4578063a217fddf14610426578063a8bb1b7d1461042e578063bbc4e8c214610441578063bdb40cb014610468578063ca15c8731461047057600080fd5b80639010d07c146103c257806391d14854146103ed5780639448920214610400578063999ab9aa1461041357600080fd5b80633cdd2cc3116101a857806367ec60201161017757806367ec6020146103485780636e2f37b01461035b57806377fe0f311461036e5780637aa38a7c146103815780637c5ad80c1461039457600080fd5b80633cdd2cc3146102fa5780634d2038591461030d578063523c8ab614610320578063603e5d131461033557600080fd5b80632f2ff15d116101e45780632f2ff15d146102b657806336568abe146102cb5780633b597ffe146102de5780633b690b6b146102f157600080fd5b806301ffc9a71461021657806313c522601461023e578063248a9ca31461026157806328c5e18214610284575b600080fd5b610229610224366004612dfd565b610560565b60405190151581526020015b60405180910390f35b6102536000805160206137b383398151915281565b604051908152602001610235565b61025361026f366004612d3a565b60009081526065602052604090206001015490565b6102536040516613585a5b9b995d60ca1b60208201526027016040516020818303038152906040528051906020012081565b6102c96102c4366004612d53565b61058b565b005b6102c96102d9366004612d53565b6105b2565b6102c96102ec366004612d3a565b6105d4565b61025360cd5481565b6102c9610308366004612fc7565b61069f565b6102c961031b366004612d00565b61078d565b61025360008051602061375383398151915281565b6102c9610343366004612f0d565b61088f565b610253610356366004612e76565b610ac3565b6102c9610369366004612d3a565b610b3c565b61025361037c366004612e76565b610c1a565b61022961038f366004613084565b610cc0565b6102296103a2366004612d53565b60ca60209081526000928352604080842090915290825290205460ff1681565b6103d56103d0366004612ddb565b610cfa565b6040516001600160a01b039091168152602001610235565b6102296103fb366004612d53565b610d19565b6102c961040e366004612d83565b610d44565b610229610421366004612fc7565b610dfa565b610253600081565b6102c961043c366004612d00565b610e43565b6102537f96e3fc3be15159903e053027cff8a23f39a990e0194abcd8ac1cf1b355b8b93c81565b610253600a81565b61025361047e366004612d3a565b610f1a565b6102c9610491366004612ffb565b610f31565b6102c96104a4366004612d53565b610fbc565b6102296104b7366004612eb7565b610fc6565b6104ee6104ca366004612d3a565b60c96020526000908152604090208054600182015460029092015490919060ff1683565b604080519384526020840192909252151590820152606001610235565b6102c9610519366004612e76565b611054565b6102c961052c366004612e27565b6110dc565b61025360cb5481565b60cc546103d5906001600160a01b031681565b6102c961055b366004612ffb565b611223565b60006001600160e01b03198216635a05180f60e01b14806105855750610585826112ae565b92915050565b61059582826112e3565b60008281526097602052604090206105ad9082611309565b505050565b6105bc828261131e565b60008281526097602052604090206105ad9082611398565b6105fe7f96e3fc3be15159903e053027cff8a23f39a990e0194abcd8ac1cf1b355b8b93c33610d19565b61065e5760405162461bcd60e51b815260206004820152602660248201527f4e6f7420656e6f756768207065726d697373696f6e7320746f2073657420636f6044820152651b9cdd185b9d60d21b60648201526084015b60405180910390fd5b60cb5460408051918252602082018390527f8abddb75fd50f7583079c0b550ec7a54fa3fd8d5dd1d2dfdc473f7ce27e3b9ac910160405180910390a160cb55565b6106b76000805160206137b383398151915233610d19565b6106d35760405162461bcd60e51b8152600401610655906132ee565b6000816040516020016106e691906131df565b60405160208183030381529060405280519060200120905060405160200161071b906613585a5b9b995d60ca1b815260070190565b604051602081830303815290604052805190602001208114156107805760405162461bcd60e51b815260206004820152601960248201527f4d61696e6e65742063616e6e6f742062652072656d6f766564000000000000006044820152606401610655565b610789826113ad565b5050565b6107a560008051602061375383398151915233610d19565b6107c15760405162461bcd60e51b815260040161065590613323565b6001600160a01b0381163b6108185760405162461bcd60e51b815260206004820152601f60248201527f476976656e2061646472657373206973206e6f74206120636f6e7472616374006044820152606401610655565b6001600160a01b0381166000908152600080516020613793833981519152602052604090205460ff161561085e5760405162461bcd60e51b815260040161065590613442565b6001600160a01b0316600090815260008051602061379383398151915260205260409020805460ff19166001179055565b600086866040516020016108a49291906131cf565b60408051601f198184030181529181528151602092830120600081815260c990935291206002015490915060ff166109195760405162461bcd60e51b815260206004820152601860248201527710da185a5b881a5cc81b9bdd081a5b9a5d1a585b1a5e995960421b6044820152606401610655565b600a83111561095e5760405162461bcd60e51b8152602060048201526011602482015270546f6f206d616e79206d6573736167657360781b6044820152606401610655565b61097161096b8585611490565b8361159b565b6109bd5760405162461bcd60e51b815260206004820152601960248201527f5369676e6174757265206973206e6f74207665726966696564000000000000006044820152606401610655565b600081815260c960205260409020548514610a405760405162461bcd60e51b815260206004820152603860248201527f5374617274696e6720636f756e746572206973206e6f74207175616c20746f2060448201527f696e636f6d696e67206d65737361676520636f756e74657200000000000000006064820152608401610655565b60005b83811015610a9657610a8382868684818110610a6157610a6161366c565b9050602002810190610a7391906134cc565b610a7e8960016134e2565b611648565b5080610a8e816135fb565b915050610a43565b50600081815260c9602052604081208054859290610ab59084906134e2565b909155505050505050505050565b6000808383604051602001610ad99291906131cf565b60408051601f198184030181529181528151602092830120600081815260c990935291206002015490915060ff16610b235760405162461bcd60e51b8152600401610655906133fe565b600090815260c960205260409020600101549392505050565b600054610100900460ff1680610b55575060005460ff16155b610b715760405162461bcd60e51b81526004016106559061336c565b600054610100900460ff16158015610b93576000805461ffff19166101011790555b610b9b611872565b610ba66000336118fe565b610bbe6000805160206137b3833981519152336118fe565b610bd6600080516020613753833981519152336118fe565b610c007f96e3fc3be15159903e053027cff8a23f39a990e0194abcd8ac1cf1b355b8b93c336118fe565b60cb8290558015610789576000805461ff00191690555050565b6000808383604051602001610c309291906131cf565b60408051601f198184030181529181528151602092830120600081815260c990935291206002015490915060ff16610caa5760405162461bcd60e51b815260206004820152601f60248201527f536f7572636520636861696e206973206e6f7420696e697469616c697a6564006044820152606401610655565b600090815260c960205260409020549392505050565b8051600090815260ce60209081526040808320828501518452909152812054610ce883611908565b811415610cf457600191505b50919050565b6000828152609760205260408120610d129083611974565b9392505050565b60009182526065602090815260408084206001600160a01b0393909316845291905290205460ff1690565b610d4f838383611980565b60006040518060a00160405280858152602001600160c9600088815260200190815260200160002060010154610d85919061352d565b81523360208201526001600160a01b03851660408201526060018390528051909150610db082611908565b600082815260ce6020908152604080832060d08084528285208054865291845291842094909455848352905281546001929190610dee9084906134e2565b90915550505050505050565b600060c9600083604051602001610e1191906131df565b60408051601f198184030181529181528151602092830120835290820192909252016000206002015460ff1692915050565b610e5b60008051602061375383398151915233610d19565b610e775760405162461bcd60e51b815260040161065590613323565b6001600160a01b0381166000908152600080516020613793833981519152602052604090205460ff16610eec5760405162461bcd60e51b815260206004820181905260248201527f457874726120636f6e7472616374206973206e6f7420726567697374657265646044820152606401610655565b6001600160a01b0316600090815260008051602061379383398151915260205260409020805460ff19169055565b600081815260976020526040812061058590611ad7565b610f4960008051602061375383398151915233610d19565b610f655760405162461bcd60e51b815260040161065590613323565b600082604051602001610f7891906131df565b60405160208183030381529060405280519060200120905060cd54811415610fb25760405162461bcd60e51b8152600401610655906133ba565b6105ad8183611ae1565b6105bc8282611c3d565b600060ca60008585604051602001610fdf9291906131cf565b60408051601f19818403018152918152815160209283012083528282019390935290820160009081206001600160a01b0386168252909152205460ff168061104c57506001600160a01b0382166000908152600080516020613793833981519152602052604090205460ff165b949350505050565b600082826040516020016110699291906131cf565b60405160208183030381529060405280519060200120905060cd548114156110d35760405162461bcd60e51b815260206004820152601c60248201527f53636861696e2063616e6e6f7420636f6e6e65637420697473656c66000000006044820152606401610655565b6105ad81611c63565b600054610100900460ff16806110f5575060005460ff16155b6111115760405162461bcd60e51b81526004016106559061336c565b600054610100900460ff16158015611133576000805461ffff19166101011790555b61113f622dc6c0610b3c565b60cc80546001600160a01b0385166001600160a01b031990911617905560408051606081018252600080825260208083018290526001838501529251919260c99261119891016613585a5b9b995d60ca1b815260070190565b60408051808303601f19018152918152815160209283012083528282019390935290820160002083518155838201516001820155928201516002909301805460ff191693151593909317909255516111f2918491016131df565b60408051601f19818403018152919052805160209091012060cd5580156105ad576000805461ff0019169055505050565b61123b60008051602061375383398151915233610d19565b6112575760405162461bcd60e51b815260040161065590613323565b60008260405160200161126a91906131df565b60405160208183030381529060405280519060200120905060cd548114156112a45760405162461bcd60e51b8152600401610655906133ba565b6105ad8183611d49565b60006001600160e01b03198216637965db0b60e01b148061058557506301ffc9a760e01b6001600160e01b0319831614610585565b6000828152606560205260409020600101546112ff8133611de8565b6105ad8383611e4c565b6000610d12836001600160a01b038416611ed2565b6001600160a01b038116331461138e5760405162461bcd60e51b815260206004820152602f60248201527f416363657373436f6e74726f6c3a2063616e206f6e6c792072656e6f756e636560448201526e103937b632b9903337b91039b2b63360891b6064820152608401610655565b6107898282611f21565b6000610d12836001600160a01b038416611f88565b6113c56000805160206137b383398151915233610d19565b6113e15760405162461bcd60e51b8152600401610655906132ee565b6000816040516020016113f491906131df565b60408051601f198184030181529181528151602092830120600081815260c990935291206002015490915060ff166114695760405162461bcd60e51b815260206004820152601860248201527710da185a5b881a5cc81b9bdd081a5b9a5d1a585b1a5e995960421b6044820152606401610655565b600090815260c9602052604081208181556001810191909155600201805460ff1916905550565b6000606060005b8381101561158b57818585838181106114b2576114b261366c565b90506020028101906114c491906134cc565b6114d2906020810190612d00565b60601b6001600160601b0319168686848181106114f1576114f161366c565b905060200281019061150391906134cc565b611514906040810190602001612d00565b60601b6001600160601b0319168787858181106115335761153361366c565b905060200281019061154591906134cc565b611553906040810190613486565b604051602001611567959493929190613195565b60405160208183030381529060405291508080611583906135fb565b915050611497565b5080516020909101209392505050565b604080518082018252823581526020808401359082015260cc548251632aa77bd360e11b81528351600094610d12949388936080808a013594938a01359360608b0135936001600160a01b03169263554ef7a6926004808301939192829003018186803b15801561160b57600080fd5b505afa15801561161f573d6000803e3d6000fd5b505050506040513d601f19601f820116820180604052508101906116439190613041565b612082565b600061166c61165d6040850160208601612d00565b6001600160a01b03163b151590565b6116ef57817f4b7d3908626050c0d998d657e4e6f31cb43ed736bf2b9a1a0192494537ca0e596040516116df9060208082526026908201527f44657374696e6174696f6e20636f6e7472616374206973206e6f74206120636f6040820152651b9d1c9858dd60d21b606082015260800190565b60405180910390a2506000610d12565b6116ff6040840160208501612d00565b6001600160a01b031663884cee5a60cb54868660000160208101906117249190612d00565b6117316040890189613486565b6040518663ffffffff1660e01b81526004016117509493929190613294565b602060405180830381600088803b15801561176a57600080fd5b5087f19350505050801561179b575060408051601f3d908101601f1916820190925261179891810190612d1d565b60015b61186b576117a7613698565b806308c379a0141561180957506117bc6136b4565b806117c7575061180b565b827f4b7d3908626050c0d998d657e4e6f31cb43ed736bf2b9a1a0192494537ca0e59826040516117f791906132db565b60405180910390a26000915050610d12565b505b3d808015611835576040519150601f19603f3d011682016040523d82523d6000602084013e61183a565b606091505b50827f4b7d3908626050c0d998d657e4e6f31cb43ed736bf2b9a1a0192494537ca0e59826040516117f791906132db565b9050610d12565b600054610100900460ff168061188b575060005460ff16155b6118a75760405162461bcd60e51b81526004016106559061336c565b600054610100900460ff161580156118c9576000805461ffff19166101011790555b6118d161224c565b6118d961224c565b6118e161224c565b6118e961224c565b80156118fb576000805461ff00191690555b50565b61059582826122b6565b6000808260000151836020015160001b846040015160601b6001600160601b031916856060015160601b6001600160601b031916866080015160405160200161195595949392919061315a565b60408051601f1981840301815291905280516020909101209392505050565b6000610d1283836122c0565b600083815260c9602052604090206002015460ff166119b15760405162461bcd60e51b8152600401610655906133fe565b336000908152600080516020613793833981519152602052604090205460ff16806119f55750600083815260ca6020908152604080832033845290915290205460ff165b611a4b5760405162461bcd60e51b815260206004820152602160248201527f53656e64657220636f6e7472616374206973206e6f74207265676973746572656044820152601960fa1b6064820152608401610655565b336001600160a01b031660c9600085815260200190815260200160002060010154847f803d7f3ca0e5f93fcce39fa29812ed57a95a151594966e17125220132741c6b08585604051611a9e929190613270565b60405180910390a4600160c960008581526020019081526020016000206001016000828254611acd91906134e2565b9091555050505050565b6000610585825490565b6001600160a01b0381163b611b385760405162461bcd60e51b815260206004820152601f60248201527f476976656e2061646472657373206973206e6f74206120636f6e7472616374006044820152606401610655565b600082815260ca602090815260408083206001600160a01b038516845290915290205460ff1615611b7b5760405162461bcd60e51b815260040161065590613442565b6001600160a01b0381166000908152600080516020613793833981519152602052604090205460ff1615611c0d5760405162461bcd60e51b815260206004820152603360248201527f457874726120636f6e747261637420697320616c7265616479207265676973746044820152726572656420666f7220616c6c20636861696e7360681b6064820152608401610655565b600091825260ca602090815260408084206001600160a01b0390931684529190529020805460ff19166001179055565b600082815260656020526040902060010154611c598133611de8565b6105ad8383611f21565b611c7b6000805160206137b383398151915233610d19565b611c975760405162461bcd60e51b8152600401610655906132ee565b600081815260c9602052604090206002015460ff1615611cf95760405162461bcd60e51b815260206004820152601a60248201527f436861696e20697320616c726561647920636f6e6e65637465640000000000006044820152606401610655565b6040805160608101825260008082526020808301828152600184860181815296845260c9909252939091209151825591519181019190915590516002909101805460ff1916911515919091179055565b600082815260ca602090815260408083206001600160a01b038516845290915290205460ff16611dbb5760405162461bcd60e51b815260206004820181905260248201527f457874726120636f6e7472616374206973206e6f7420726567697374657265646044820152606401610655565b600091825260ca602090815260408084206001600160a01b0390931684529190529020805460ff19169055565b611df28282610d19565b61078957611e0a816001600160a01b031660146122ea565b611e158360206122ea565b604051602001611e269291906131fb565b60408051601f198184030181529082905262461bcd60e51b8252610655916004016132db565b611e568282610d19565b6107895760008281526065602090815260408083206001600160a01b03851684529091529020805460ff19166001179055611e8e3390565b6001600160a01b0316816001600160a01b0316837f2f8788117e7eff1d82e926ec794901d17c78024a50270940304540a733656f0d60405160405180910390a45050565b6000818152600183016020526040812054611f1957508154600181810184556000848152602080822090930184905584548482528286019093526040902091909155610585565b506000610585565b611f2b8282610d19565b156107895760008281526065602090815260408083206001600160a01b0385168085529252808320805460ff1916905551339285917ff6391f5c32d9c69d2a47ea670b442974b53935d1edc7fd64eb21e047a839171b9190a45050565b60008181526001830160205260408120548015612071576000611fac60018361352d565b8554909150600090611fc09060019061352d565b9050818114612025576000866000018281548110611fe057611fe061366c565b90600052602060002001549050808760000184815481106120035761200361366c565b6000918252602080832090910192909255918252600188019052604090208390555b855486908061203657612036613656565b600190038181906000526020600020016000905590558560010160008681526020019081526020016000206000905560019350505050610585565b6000915050610585565b5092915050565b600061208d87612485565b6120d25760405162461bcd60e51b815260206004820152601660248201527514da59db985d1d5c99481a5cc81b9bdd081d985b1a5960521b6044820152606401610655565b6120de868686866124bb565b6120ea57506000612242565b60006120f988602001516125a7565b90506121098860000151826125cc565b6121465760405162461bcd60e51b815260206004820152600e60248201526d5369676e206e6f7420696e20473160901b6044820152606401610655565b61215085856125cc565b61218d5760405162461bcd60e51b815260206004820152600e60248201526d48617368206e6f7420696e20473160901b6044820152606401610655565b6000612197612602565b90506121a2846126c2565b6121e55760405162461bcd60e51b8152602060048201526014602482015273283ab13634b19025b2bc903737ba1034b710239960611b6044820152606401610655565b61223d8960000151838360000151602001518460000151600001518560200151602001518660200151600001518c8c8c60000151602001518d60000151600001518e60200151602001518f60200151600001516126d6565b925050505b9695505050505050565b600054610100900460ff1680612265575060005460ff16155b6122815760405162461bcd60e51b81526004016106559061336c565b600054610100900460ff161580156118e9576000805461ffff191661010117905580156118fb576000805461ff001916905550565b6107898282611e4c565b60008260000182815481106122d7576122d761366c565b9060005260206000200154905092915050565b606060006122f983600261350e565b6123049060026134e2565b6001600160401b0381111561231b5761231b613682565b6040519080825280601f01601f191660200182016040528015612345576020820181803683370190505b509050600360fc1b816000815181106123605761236061366c565b60200101906001600160f81b031916908160001a905350600f60fb1b8160018151811061238f5761238f61366c565b60200101906001600160f81b031916908160001a90535060006123b384600261350e565b6123be9060016134e2565b90505b6001811115612436576f181899199a1a9b1b9c1cb0b131b232b360811b85600f16601081106123f2576123f261366c565b1a60f81b8282815181106124085761240861366c565b60200101906001600160f81b031916908160001a90535060049490941c9361242f81613574565b90506123c1565b508315610d125760405162461bcd60e51b815260206004820181905260248201527f537472696e67733a20686578206c656e67746820696e73756666696369656e746044820152606401610655565b60006000805160206137738339815191528260000151108015610585575050602001516000805160206137738339815191521190565b600060648411156124ce5750600061104c565b60006124e860008051602061377383398151915287613616565b905060008051602061377383398151915261250386836134e2565b61250d9190613616565b905060006000805160206137738339815191526003600080516020613773833981519152846000805160206137738339815191528687090908905061256160026000805160206137738339815191526134fa565b84108061257f57508060008051602061377383398151915285860914155b8061258a5750848214155b1561259a5760009250505061104c565b5060019695505050505050565b60006000805160206137738339815191526125c2838261352d565b6105859190613616565b6000600080516020613773833981519152806003818681888909090881806125f6576125f6613640565b84850914949350505050565b61260a612b7c565b50604080516080810182527f1800deef121f1e76426a00665e5c4479674322d4f75edadd46debd5cd992f6ed8183019081527f198e9393920d483a7260bfb731fb5d25f1aa493335a9e71297e485b7aef312c26060830152815281518083019092527f12c85ea5db8c6deb4aab71808dcb408fe3d1e7690c43d37b4ce6cc0166fa7daa82527f090689d0585ff075ec9e99ad690c3395bc4b313370b38ef355acdadcd122975b60208381019190915281019190915290565b6000610585826000015183602001516127a6565b6000806126e1612bc0565b8e8152602081018e9052604081018d9052606081018c9052608081018b905260a081018a905260c0810189905260e08101889052610100810187905261012081018690526101408101859052610160810184905261273d612bdf565b602081610180846008600019fa9250826127905760405162461bcd60e51b815260206004820152601460248201527314185a5c9a5b99c818da1958dac819985a5b195960621b6044820152606401610655565b5115159f9e505050505050505050505050505050565b60006127b2838361287a565b156127bf57506001610585565b60006127ca836128ad565b9050600061285d61283a604080518082018252600080825260209182015281518083019092527f2b149d40ceb8aaae81be18991be06ac3b5b4c5e559dbefa33267e6dc24a138e582527e9713b03af0fed4cd2cafadeed8fdf4a74fa084e52d1852e4a2bd0685c315d29082015290565b6128576128508861284a8a6128ad565b90612963565b8590612a76565b90612a76565b805190915015801561287157506020810151155b95945050505050565b815160009015801561288e57506020830151155b801561289b575081516001145b8015610d125750506020015115919050565b604080518082019091526000808252602082015260008051602061377383398151915260008160208501518551099050600082806128ed576128ed613640565b83806128fb576128fb613640565b848061290957612909613640565b602088015161291960018861352d565b09875108848061292b5761292b613640565b60208801518851080990506040518060400160405280828152602001848061295557612955613640565b848508905295945050505050565b6040805180820190915260008082526020820152600060008051602061377383398151915290506000604051806040016040528083806129a5576129a5613640565b8651885109815260200183806129bd576129bd613640565b86602001518860200151099052905081806129da576129da613640565b82806129e8576129e8613640565b60208301516129f860018661352d565b0982510883528180612a0c57612a0c613640565b8280612a1a57612a1a613640565b6020830151835108612a2c908461352d565b8380612a3a57612a3a613640565b8480612a4857612a48613640565b60208801518851088580612a5e57612a5e613640565b60208a01518a51080908602084015250909392505050565b6040805180820190915260008082526020820152815183516000805160206137738339815191529111612ac7578080612ab157612ab1613640565b8351612abd908361352d565b8551088252612afc565b808180612ad657612ad6613640565b8551612ae2908461352d565b855108612aef908361352d565b612af99190613616565b82525b8260200151846020015110612b38578080612b1957612b19613640565b6020840151612b28908361352d565b856020015108602083015261207b565b808180612b4757612b47613640565b6020860151612b56908461352d565b856020015108612b66908361352d565b612b709190613616565b60208301525092915050565b60408051608081018252600091810182815260608201929092529081908152602001612bbb604051806040016040528060008152602001600081525090565b905290565b604051806101800160405280600c906020820280368337509192915050565b60405180602001604052806001906020820280368337509192915050565b600082601f830112612c0e57600080fd5b81356001600160401b03811115612c2757612c27613682565b604051612c3e601f8301601f1916602001826135cf565b818152846020838601011115612c5357600080fd5b816020850160208301376000918101602001919091529392505050565b60008083601f840112612c8257600080fd5b5081356001600160401b03811115612c9957600080fd5b602083019150836020828501011115612cb157600080fd5b9250929050565b600060408284031215612cca57600080fd5b604051612cd68161358b565b80915082518152602083015160208201525092915050565b600060a08284031215610cf457600080fd5b600060208284031215612d1257600080fd5b8135610d128161373d565b600060208284031215612d2f57600080fd5b8151610d128161373d565b600060208284031215612d4c57600080fd5b5035919050565b60008060408385031215612d6657600080fd5b823591506020830135612d788161373d565b809150509250929050565b600080600060608486031215612d9857600080fd5b833592506020840135612daa8161373d565b915060408401356001600160401b03811115612dc557600080fd5b612dd186828701612bfd565b9150509250925092565b60008060408385031215612dee57600080fd5b50508035926020909101359150565b600060208284031215612e0f57600080fd5b81356001600160e01b031981168114610d1257600080fd5b60008060408385031215612e3a57600080fd5b8235612e458161373d565b915060208301356001600160401b03811115612e6057600080fd5b612e6c85828601612bfd565b9150509250929050565b60008060208385031215612e8957600080fd5b82356001600160401b03811115612e9f57600080fd5b612eab85828601612c70565b90969095509350505050565b600080600060408486031215612ecc57600080fd5b83356001600160401b03811115612ee257600080fd5b612eee86828701612c70565b9094509250506020840135612f028161373d565b809150509250925092565b6000806000806000806101008789031215612f2757600080fd5b86356001600160401b0380821115612f3e57600080fd5b612f4a8a838b01612c70565b9098509650602089013595506040890135915080821115612f6a57600080fd5b818901915089601f830112612f7e57600080fd5b813581811115612f8d57600080fd5b8a60208260051b8501011115612fa257600080fd5b602083019550809450505050612fbb8860608901612cee565b90509295509295509295565b600060208284031215612fd957600080fd5b81356001600160401b03811115612fef57600080fd5b61104c84828501612bfd565b6000806040838503121561300e57600080fd5b82356001600160401b0381111561302457600080fd5b61303085828601612bfd565b9250506020830135612d788161373d565b60006080828403121561305357600080fd5b60405161305f8161358b565b6130698484612cb8565b81526130788460408501612cb8565b60208201529392505050565b60006020828403121561309657600080fd5b81356001600160401b03808211156130ad57600080fd5b9083019060a082860312156130c157600080fd5b6040516130cd816135b0565b823581526020830135602082015260408301356130e98161373d565b604082015260608301356130fc8161373d565b606082015260808301358281111561311357600080fd5b61311f87828601612bfd565b60808301525095945050505050565b60008151808452613146816020860160208601613544565b601f01601f19169290920160200192915050565b85815284602082015283604082015282606082015260008251613184816080850160208701613544565b919091016080019695505050505050565b600086516131a7818460208b01613544565b8201868152602081018690528385604083013760009301604001928352509095945050505050565b8183823760009101908152919050565b600082516131f1818460208701613544565b9190910192915050565b7f416363657373436f6e74726f6c3a206163636f756e7420000000000000000000815260008351613233816017850160208801613544565b7001034b99036b4b9b9b4b733903937b6329607d1b6017918401918201528351613264816028840160208801613544565b01602801949350505050565b6001600160a01b038316815260406020820181905260009061104c9083018461312e565b8481526001600160a01b03841660208201526060604082018190528101829052818360808301376000818301608090810191909152601f909201601f191601019392505050565b602081526000610d12602083018461312e565b6020808252818101527f434841494e5f434f4e4e4543544f525f524f4c45206973207265717569726564604082015260600190565b60208082526029908201527f45585452415f434f4e54524143545f5245474953545241525f524f4c45206973604082015268081c995c5d5a5c995960ba1b606082015260800190565b6020808252602e908201527f496e697469616c697a61626c653a20636f6e747261637420697320616c72656160408201526d191e481a5b9a5d1a585b1a5e995960921b606082015260800190565b60208082526024908201527f53636861696e20686173682063616e206e6f7420626520657175616c204d61696040820152631b9b995d60e21b606082015260800190565b60208082526024908201527f44657374696e6174696f6e20636861696e206973206e6f7420696e697469616c6040820152631a5e995960e21b606082015260800190565b60208082526024908201527f457874726120636f6e747261637420697320616c726561647920726567697374604082015263195c995960e21b606082015260800190565b6000808335601e1984360301811261349d57600080fd5b8301803591506001600160401b038211156134b757600080fd5b602001915036819003821315612cb157600080fd5b60008235605e198336030181126131f157600080fd5b600082198211156134f5576134f561362a565b500190565b60008261350957613509613640565b500490565b60008160001904831182151516156135285761352861362a565b500290565b60008282101561353f5761353f61362a565b500390565b60005b8381101561355f578181015183820152602001613547565b8381111561356e576000848401525b50505050565b6000816135835761358361362a565b506000190190565b604081018181106001600160401b03821117156135aa576135aa613682565b60405250565b60a081018181106001600160401b03821117156135aa576135aa613682565b601f8201601f191681016001600160401b03811182821017156135f4576135f4613682565b6040525050565b600060001982141561360f5761360f61362a565b5060010190565b60008261362557613625613640565b500690565b634e487b7160e01b600052601160045260246000fd5b634e487b7160e01b600052601260045260246000fd5b634e487b7160e01b600052603160045260246000fd5b634e487b7160e01b600052603260045260246000fd5b634e487b7160e01b600052604160045260246000fd5b600060033d11156136b15760046000803e5060005160e01c5b90565b600060443d10156136c25790565b6040516003193d81016004833e81513d6001600160401b0381602484011181841117156136f157505050505090565b82850191508151818111156137095750505050505090565b843d87010160208285010111156137235750505050505090565b613732602082860101876135cf565b509095945050505050565b6001600160a01b03811681146118fb57600080fdfe6155b5aac15ce9aa193c0527a6f43be0a36a7e2e7496c2b615c0e5f92284277330644e72e131a029b85045b68181585d97816a916871ca8d3c208c16d87cfd47992e0e3e7050db88ec37ec33505f46a9813ea5551fe17ef58dc201344bcbaf932785f35fe7d8743aa971942d8474737bb31895d396eff2cc688a481e0221e191a2646970667358221220635e770e6d23dfc919062a8916711dc56d00db9226f405f48fe0a8135faf6f9664736f6c63430008060033",
  "linkReferences": {},
  "deployedLinkReferences": {}
}